{
  "contractName": "ExampleRequester",
  "abi": [
    {
      "constant": true,
      "inputs": [],
      "name": "truebit",
      "outputs": [
        {
          "name": "",
          "type": "address"
        }
      ],
      "payable": false,
      "type": "function"
    },
    {
      "constant": false,
      "inputs": [
        {
          "name": "dataRoot",
          "type": "bytes32"
        },
        {
          "name": "minDeposit",
          "type": "uint256"
        }
      ],
      "name": "createTask",
      "outputs": [
        {
          "name": "taskIndex",
          "type": "uint256"
        }
      ],
      "payable": true,
      "type": "function"
    },
    {
      "constant": true,
      "inputs": [
        {
          "name": "",
          "type": "uint256"
        }
      ],
      "name": "tasks",
      "outputs": [
        {
          "name": "",
          "type": "bytes32"
        }
      ],
      "payable": false,
      "type": "function"
    },
    {
      "constant": false,
      "inputs": [
        {
          "name": "taskIndex",
          "type": "uint256"
        },
        {
          "name": "solution",
          "type": "bytes32"
        }
      ],
      "name": "proccessTask",
      "outputs": [
        {
          "name": "",
          "type": "bool"
        }
      ],
      "payable": false,
      "type": "function"
    },
    {
      "inputs": [
        {
          "name": "_truebit",
          "type": "address"
        }
      ],
      "payable": false,
      "type": "constructor"
    }
  ],
  "bytecode": "0x6060604052341561000f57600080fd5b6040516020806102a3833981016040528080519150505b60008054600160a060020a031916600160a060020a0383161790555b505b610250806100536000396000f300606060405263ffffffff7c010000000000000000000000000000000000000000000000000000000060003504166314dadd13811461005e5780636fbb5f621461009a5780638d977672146100ba578063cfc9ca17146100e2575b600080fd5b341561006957600080fd5b61007161010f565b60405173ffffffffffffffffffffffffffffffffffffffff909116815260200160405180910390f35b6100a860043560243561012b565b60405190815260200160405180910390f35b34156100c557600080fd5b6100a86004356101cc565b60405190815260200160405180910390f35b34156100ed57600080fd5b6100fb6004356024356101de565b604051901515815260200160405180910390f35b60005473ffffffffffffffffffffffffffffffffffffffff1681565b6000805473ffffffffffffffffffffffffffffffffffffffff16636fbb5f6234858585604051602001526040517c010000000000000000000000000000000000000000000000000000000063ffffffff8616028152600481019290925260248201526044016020604051808303818588803b15156101a857600080fd5b6125ee5a03f115156101b957600080fd5b5050505060405180519150505b92915050565b60016020526000908152604090205481565b600080543373ffffffffffffffffffffffffffffffffffffffff90811691161461020757600080fd5b5060008281526001602081905260409091208290555b5b929150505600a165627a7a7230582020d086b253f32093f8f5706f13f36be50ee3969ad30872ec29d08edb201ff2730029",
  "source": "pragma solidity ^0.4.4;\nimport \"./Requester.sol\";\nimport \"./Truebit.sol\";\n\ncontract ExampleRequester is Requester{\n  Truebit public truebit;\n  mapping (uint => bytes32) public tasks;\n  modifier onlyTruebit(){ require(msg.sender == address(truebit)); _; }\n  function ExampleRequester(address _truebit){\n    truebit = Truebit(_truebit);\n  }\n\n  function createTask(bytes32 dataRoot, uint minDeposit) payable returns (uint taskIndex){\n    taskIndex = truebit.createTask.value(msg.value)(dataRoot, minDeposit);\n  }\n\n  function proccessTask(uint taskIndex, bytes32 solution) onlyTruebit returns (bool){\n    tasks[taskIndex] = solution;\n    return true;\n  }\n}\n",
  "sourcePath": "/Users/zacharymitton/Dropbox/zac_mitton/dev/_ether/truebit-contracts/contracts/ExampleRequester.sol",
  "schemaVersion": "1.0.0",
  "updatedAt": "2017-09-25T13:56:05.706Z"
}