{
  "contractName": "Requester",
  "abi": [
    {
      "constant": false,
      "inputs": [
        {
          "name": "taskIndex",
          "type": "uint256"
        },
        {
          "name": "solution",
          "type": "bytes32"
        }
      ],
      "name": "proccessTask",
      "outputs": [
        {
          "name": "",
          "type": "bool"
        }
      ],
      "payable": false,
      "type": "function"
    }
  ],
  "bytecode": "0x60606040523415600e57600080fd5b5b609b8061001d6000396000f300606060405263ffffffff7c0100000000000000000000000000000000000000000000000000000000600035041663cfc9ca178114603c575b600080fd5b3415604657600080fd5b60526004356024356066565b604051901515815260200160405180910390f35b60005b929150505600a165627a7a72305820be61f06545aadb9095dd754481c332db663d2f821652a6cc2a079adfb0825fef0029",
  "source": "pragma solidity ^0.4.4;\n\ncontract Requester{\n  function proccessTask(uint taskIndex, bytes32 solution) returns(bool){}\n}\n",
  "sourcePath": "/Users/zacharymitton/Dropbox/zac_mitton/dev/_ether/truebit-contracts/contracts/Requester.sol",
  "schemaVersion": "1.0.0",
  "updatedAt": "2017-09-25T13:56:05.708Z"
}