{
  "contractName": "Truebit",
  "abi": [
    {
      "constant": true,
      "inputs": [
        {
          "name": "taskIndex",
          "type": "uint256"
        }
      ],
      "name": "getTask",
      "outputs": [
        {
          "name": "",
          "type": "bytes32"
        },
        {
          "name": "",
          "type": "address"
        },
        {
          "name": "",
          "type": "uint256"
        },
        {
          "name": "",
          "type": "uint256"
        },
        {
          "name": "",
          "type": "bool"
        },
        {
          "name": "",
          "type": "bool"
        },
        {
          "name": "",
          "type": "bytes32"
        },
        {
          "name": "",
          "type": "bytes32"
        }
      ],
      "payable": false,
      "type": "function"
    },
    {
      "constant": false,
      "inputs": [
        {
          "name": "dataRoot",
          "type": "bytes32"
        },
        {
          "name": "minDeposit",
          "type": "uint256"
        }
      ],
      "name": "createTask",
      "outputs": [
        {
          "name": "",
          "type": "uint256"
        }
      ],
      "payable": true,
      "type": "function"
    },
    {
      "constant": false,
      "inputs": [
        {
          "name": "taskIndex",
          "type": "uint256"
        },
        {
          "name": "globalRoot",
          "type": "bytes32"
        },
        {
          "name": "solution",
          "type": "bytes32"
        }
      ],
      "name": "cheatSolve",
      "outputs": [],
      "payable": false,
      "type": "function"
    },
    {
      "constant": false,
      "inputs": [
        {
          "name": "taskIndex",
          "type": "uint256"
        }
      ],
      "name": "proccessTask",
      "outputs": [],
      "payable": false,
      "type": "function"
    }
  ],
  "bytecode": "0x6060604052620f4240600255341561001657600080fd5b5b61045c806100266000396000f300606060405263ffffffff7c01000000000000000000000000000000000000000000000000000000006000350416631d65e77e811461005e5780636fbb5f62146100c557806389930deb146100e5578063d22dcf1e14610103575b600080fd5b341561006957600080fd5b61007460043561011b565b604051978852600160a060020a03909616602088015260408088019590955260608701939093529015156080860152151560a085015260c084015260e0830191909152610100909101905180910390f35b6100d3600435602435610176565b60405190815260200160405180910390f35b34156100f057600080fd5b61010160043560243560443561028f565b005b341561010e57600080fd5b6101016004356102c1565b005b600081815260208190526040902080546001820154600283015460038401546004850154600586015460068701549596600160a060020a03909516959394929360ff8084169461010090940416925b50919395975091939597565b6000806002543481151561018657fe5b0490506101006040519081016040908152858252600160a060020a0333166020808401919091528183018690526060830184905260006080840181905260a0840181905260c0840181905260e084018190526001548152908190522081518155602082015160018201805473ffffffffffffffffffffffffffffffffffffffff1916600160a060020a03929092169190911790556040820151816002015560608201518160030155608082015160048201805460ff191691151591909117905560a08201516004820180549115156101000261ff001990921691909117905560c0820151600582015560e0820151600690910155506001805480820190915591505b5092915050565b6000838152602081905260409020600581018390556006810182905560048101805460ff191660011790555b50505050565b600081815260208190526040908190209061034890829061010090519081016040908152825482526001830154600160a060020a0316602083015260028301549082015260038201546060820152600482015460ff8082161515608084015261010090910416151560a0820152600582015460c082015260069091015460e0820152610421565b151561035357600080fd5b6004810154610100900460ff161561036a57600080fd5b60018101546006820154600160a060020a039091169063cfc9ca179084906000604051602001526040517c010000000000000000000000000000000000000000000000000000000063ffffffff851602815260048101929092526024820152604401602060405180830381600087803b15156103e557600080fd5b6102c65a03f115156103f657600080fd5b50505060405180519050151561040b57600080fd5b60048101805461ff0019166101001790555b5050565b6000816080015190505b9190505600a165627a7a723058201b9f08ef379f643ffb8c273e7e691bc98276708f240e0837dd8e46bf081e10e60029",
  "source": "pragma solidity ^0.4.4;\nimport \"./Requester.sol\";\n\ncontract Truebit{\n  mapping (uint => Task) tasks;\n  uint numTasks;\n  uint gasPrice = 1000000; //1 million wei/instruction \n\n  struct Task{\n    bytes32 dataRoot;\n    address requester;\n    uint    minDeposit;\n    uint    gasLimit;\n\n    bool solved;\n    bool proccessed;\n    bytes32 globalRoot;\n    bytes32 solution; //can be a root\n  }\n\n  struct Solution{\n  }\n\n  function createTask(bytes32 dataRoot, uint minDeposit) payable returns (uint){\n    uint gasLimit = msg.value / gasPrice;\n    tasks[numTasks] = Task(dataRoot, msg.sender, minDeposit, gasLimit, false, false, 0x0, 0x0);\n    numTasks++;\n    return numTasks - 1;\n  }\n  function proccessTask(uint taskIndex){\n    Task t = tasks[taskIndex];\n    require(solved(t));\n    require(!t.proccessed);\n    require(Requester(t.requester).proccessTask(taskIndex, t.solution));\n    t.proccessed = true;\n  }\n\n\n  function solved(Task t) private returns (bool){\n    return t.solved; //stub for now\n  }\n  function cheatSolve(uint taskIndex, bytes32 globalRoot, bytes32 solution){\n    Task t = tasks[taskIndex];\n    t.globalRoot = globalRoot;\n    t.solution = solution;\n    t.solved = true;\n  }\n\n  function getTask(uint taskIndex) constant returns(bytes32, address, uint, uint, bool, bool, bytes32, bytes32){\n    Task t = tasks[taskIndex];\n    return (t.dataRoot, t.requester, t.minDeposit, t.gasLimit, t.solved, t.proccessed, t.globalRoot, t.solution);\n  }\n}\n\n\n",
  "sourcePath": "/Users/zacharymitton/Dropbox/zac_mitton/dev/_ether/truebit-contracts/contracts/Truebit.sol",
  "schemaVersion": "1.0.0",
  "updatedAt": "2017-09-25T13:56:05.708Z"
}